S0160000617474696E79313631362D73616F2E7372656337
S11300000C94DE000C94FB000C94FB000C94FB009D
S11300100C94FB000C94FB000C94FB000C94FB0070
S11300200C94FB000C94FB000C94FB000C94FB0060
S11300300C94FB000C9471070C942E080C94FB0098
S11300400C94FB000C94FB000C94FB000C94FB0040
S11300500C94FB000C94FB000C94FB000C94FB0030
S11300600C94FB000C94FB000C94FB000C94FB0020
S11300700C94FB000C94FB000C94FB006F067206BE
S11300808C068F06A806AB06CC06E006F8060A071F
S1130090190703000000000075697367766A7165CB
S11300A0786C73673A2E7A787600000000000000BE
S11300B0000000000000000000000000000000003C
S11300C0000000000000000012110F000A111211BC
S11300D00F0A0605060B0A000F0012110F004A084A
S11300E00B0A08050605084F4D15521413145656ED
S11300F0545313141614120F0D120F14121614164F
S1130100524F0D120F1412161512131416145316FF
S113011014120F141314165456544F4D155214132D
S1130120145656545313141614120F0D120F14129E
S1130130161416524F0D120F14121615121314160C
S113014014531614120F14131416545656561B191E
S1130150561B19161412161112110F56561B191686
S11301601B111214161D1E1D1B561B19561B191686
S1130170161412161B191B561617161B19161112D4
S1130180110F5657561B19561B1916141216111215
S1130190110F56561B19161B111214161D1E1D1B6A
S11301A0561B19561B1916161412161B191B561614
S11301B017161B19161112110F56540011241FBEC5
S11301C0CFEFCDBFDFE3DEBF18E3A0E0B8E3E1E8A3
S11301D0F5E102C005900D92AC32B107D9F728E3DE
S11301E0ACE2B8E301C01D92AE37B207E1F70E945A
S11301F034070C94640A0C9400000F931F93DA01E3
S1130200EC0118E00D916D83000000000000000077
S11302100000000000FF6E830000000000000000EA
S11302200000000000006E830000000000000000D9
S113023006951A9541F72A9521F76E831F910F9120
S113024008950F931F9302E018E40093050400003F
S11302500000000000000000000010FF00930604EE
S1130260000000000000000010FD009306040000E0
S1130270000000001A9549F71F910F91089588ED29
S113028084BF109260008091630084FFFCCF88EDEE
S113029084BF109261000895E0E4F4E08FE082836B
S11302A088E0808B818B828B838BE0E2F4E090E3A7
S11302B09283848B858BA0E0B4E082E011968C93CA
S11302C0119780E111968C9381E081830895E0E099
S11302D0FAE081E081839BE09083E0E8FAE0118218
S11302E098ED94BF90E2928B94E19083E0E4FAE07D
S11302F01182858394E09083E0E5FAE02CE13CE010
S1130300248735871182858385E08083089581E081
S113031090E00E94E50995E090930A38873A31F419
S113032082E090E00E94E50980930A380895809164
S11303300A388F5F80930A3880910A38853018F420
S113034085E080930A3860910A3882E090E00E9448
S1130350ED0967EA81E090E00E94ED090895E0E488
S1130360FAE0848795878081816080830895E0E442
S1130370FAE080818E7F80830895660F660F4423A0
S113038029F060933E3880933D3808956093403857
S113039080933F380895CF93DF93C82FD0E0DE01D8
S11303A0AA0FBB1FAA0FBB1FAA0FBB1FAC0FBD1FF9
S11303B0AC5BB74C12969C9112971596ED91FC91FB
S11303C01697E90FF11D94911796ED91FC911897EA
S11303D013962C911397E20FF11D2491392F329526
S11303E036953695337061E001C0660F3A95EAF7A9
S11303F030E014960C9002C0359527950A94E2F7E4
S1130400232B09F060E1482F892F8F730E94BD01CF
S1130410FE01EE0FFF1FEE0FFF1FEE0FFF1FEC0F8D
S1130420FD1FEC5BF74C82818F5F8283918189177A
S1130430A0F0FE01EE0FFF1FEE0FFF1FEE0FFF1FD8
S1130440EC0FFD1FEC5BF74C80818283982F96950F
S113045096959695938387708483FE01EE0FFF1F14
S1130460EE0FFF1FEE0FFF1FEC0FFD1FEC5BF74CB1
S113047084818F5F8483883020F0148283818F5F2E
S11304808383DF91CF9108950E94B701E0E0FAE001
S113049081818F7E8183E0E8FAE080818E7F808392
S11304A010923F381092403810923D3810923E38E6
S11304B0089524E230E046E558E362E080E094E009
S11304C00E94FD000895CF92DF92EF9220913B3875
S11304D09BEA299F912D1124969596959695892F9F
S11304E0880F980F892F880F880F922F981B80915F
S11304F03A38482F477080E02DC0282F30E0F901AA
S1130500EE0FFF1FE20FF31FEA5AF74CC090413879
S1130510D0904238E0904338C082D182E28289137D
S113052018C0642F70E0F901EE0FFF1F2E0F3F1F5C
S1130530F901EA5AF74CDB01AA0FBB1F6A0F7B1FB4
S1130540DB01AD5EB74CCD90DD90EC90C082D182E2
S1130550E2828F5F8C3088F280913B388F5F80938A
S11305603B3880913B388C3038F010923B38809186
S11305703A388F5F80933A380E945902EF90DF90A7
S1130580CF90089510923C3810923B3810923A382C
S113059081E080930B380E946302089520E014C028
S11305A0822F90E0FC01EE0FFF1F8E0F9F1FFC01B6
S11305B0EA5AF74C8091413890914238A0914338DF
S11305C080839183A2832F5F2C3050F30895CF92C0
S11305D0DF92EF9280913B3880FF1CC0E6E5F8E3A0
S11305E08091253890912638A09127388083918373
S11305F0A28383839483A583809141389091423868
S1130600A091433886839783A08781879287A387A5
S113061040E03DC0E6E5F8E3809125389091263826
S1130620A091273881879287A38786839783A087A1
S11306308091413890914238A091433883839483C8
S1130640A58380839183A283E3CF842F90E09C01D0
S11306502C5F3F4F50913B38850F911D8770992730
S1130660D901AA0FBB1F2A0F3B1FD901AA5AB74CA5
S1130670FC01EE0FFF1F8E0F9F1FFC01ED5EF74C78
S1130680C080D180E280CD92DD92EC924F5F483001
S1130690E0F280913B388F5F80933B380E9459028F
S11306A0EF90DF90CF90089510923C3889E0ECEC05
S11306B0F4E9A4E4B8E301900D928A95E1F789E0A6
S11306C0E5EDF4E9ADE4B8E301900D928A95E1F724
S11306D080E00E94CB0181E00E94CB018CEF91E28B
S11306E00E94AF010E94E70283E080930B380895D3
S11306F0CF92DF92EF9290913B38937080E030C0BC
S1130700282F30E0F901EE0FFF1FE20FF31FEA5A22
S1130710F74CC0904138D0904238E0904338C082C2
S1130720D182E28289131BC0F901E45FF74C408156
S113073050E0F901EE0FFF1F2E0F3F1FF901EA5A97
S1130740F74CDA01AA0FBB1F4A0F5B1FDA01AD5E3B
S1130750B74C2D913D914C912083318342838F5F1F
S11307608C3070F20E94590280913B388F5F8093E5
S11307703B38EF90DF90CF9008950F931F93CF9362
S113078010923C381092323810923B381092313823
S113079080913338909134380E94000980910A384E
S11307A090E00E94680880933338909334388091A5
S11307B0200A9091210A0E94DA09C0E018C0009131
S11307C03338109134380C0F111D0E94D5098370F1
S11307D09078992324F401978C6F9F6F019691E090
S11307E001C0990F8A95EAF7F8019083CF5F809151
S11307F00A38C81720F30E94780385E080930B38E9
S1130800CF911F910F910895CF92DF92EF92309183
S11308100A3820E027C0822F90E0FC01EE0FFF1F72
S1130820E80FF91FEA5AF74CC0904138D09042388B
S1130830E0904338C082D182E28230FF11C0FC01D3
S1130840EE0FFF1F8E0F9F1FFC01EA5AF74C809199
S1130850103890911138A091123880839183A2832B
S113086036952F5F2C30B8F20E945902EF90DF903A
S1130870CF9008950F931F93CF93DF93EC01162F1E
S1130880042F80912E3881110FC081E080932E387F
S113089010923F381092403888E293E20E94AF01F0
S11308A01093303810922F388091403881111FC036
S11308B080912F38FE01E80FF11D80818295869585
S11308C08695837061E070E002C0660F771F8A9599
S11308D0E2F780912F38C80FD11D888140E08F73D3
S11308E00E94BD0180912F388F5F80932F389091A3
S11308F02F3880913038981308C010922E380E94F7
S1130900440200930B3810923C38DF91CF911F9131
S11309100F91089594E09093070490E014C0292F58
S113092030E0F901EE0FFF1F2E0F3F1FF901EA5AC5
S1130930F74C20914138309142384091433820831C
S1130940318342839F5F9C3050F390E0FC01E45F6D
S1130950F74C208130E0FC01EE0FFF1F8E0F9F1F2C
S1130960FC01EA5AF74CD901AA0FBB1F2A0F3B1FFF
S1130970D901AD5EB74C8D919D91AC9180839183EB
S1130980A2830E9459020895982F80E00EC021E0AE
S113099030E0082E02C0220F331F0A94E2F7492FD9
S11309A050E02417350719F08F5F883080F30895DD
S11309B0CF9380912E388823D1F010922E380E9444
S11309C0CE020E9459020E944402909131388091D3
S11309D03238891788F588E080930B3810922E38C6
S11309E01092313810922C3810922D3825C081E0A5
S11309F080932E3880913138E0913338F091343837
S1130A00E80FF11D80810E94C404C82FE82FF0E094
S1130A10E252FB46808140E068E08F730E94BD0192
S1130A208C2F0E948A0488E293E20E94AF01809195
S1130A3031388F5F80933138CF910895CF9380916F
S1130A4036388F70A9F110922C3810922D3880917D
S1130A503138E0913338F0913438E80FF11D90814A
S1130A6080913638981721F08AE080930B385EC065
S1130A70809136380E94C404C82FE82FF0E0E25277
S1130A80FB4640E061E080810E94BD0190913638D0
S1130A9080912E38981719F08C2F0E948A04809127
S1130AA0363880932E3888E293E20E94AF013CC02E
S1130AB080912E38882359F10E9444020E94CE026C
S1130AC00E94590210922C3810922D38809131389E
S1130AD08F5F809331389091313880913238891703
S1130AE0B0F4809132388F5F8093323890913238ED
S1130AF080910A38981306C00E94970189E0809378
S1130B000B3805C01092313887E080930B3810926F
S1130B102E3880912C3890912D38843F914020F0CC
S1130B208AE080930B3802C010923C38CF9108952C
S1130B30CF92DF92EF9280913B3880FF22C00E94D7
S1130B40CE0239C0422F50E0FA01E45FF74C8081B5
S1130B5090E0DA01AA0FBB1F4A0F5B1FDA01AA5A01
S1130B60B74CFC01EE0FFF1F8E0F9F1FFC01ED5EC3
S1130B70F74CC080D180E280CD92DD92EC922F5F61
S1130B8001C020E02430F0F214C0822F90E0FC0178
S1130B90EE0FFF1F8E0F9F1FFC01EA5AF74C809146
S1130BA0103890911138A091123880839183A283D8
S1130BB02F5F2C3050F30E94590280913B388F5F95
S1130BC080933B38EF90DF90CF90089580913B382D
S1130BD080FF18C00E94CE0218C0822F90E0FC0152
S1130BE0EE0FFF1F8E0F9F1FFC01EA5AF74C8091F6
S1130BF0133890911438A091153880839183A2837F
S1130C002F5F01C020E02C3040F30E9459028091F4
S1130C103B388F5F80933B380895909148048091CE
S1130C2028049F708071892B90913638282F30E0EA
S1130C30A90140955095292F30E024233523232BF7
S1130C4019F080913638089580FF0AC081FF0AC0E8
S1130C5082FF0AC083FF0AC0807151F480E10895C5
S1130C6081E0089582E0089588E0089584E008957D
S1130C7080E0089580913838811113C00E940D06D8
S1130C8080933838809136388823D9F08091383869
S1130C90811117C0809136388093353810923638D8
S1130CA0089580913738823060F00E940D0690914B
S1130CB03838891304C080913838809336381092BC
S1130CC038380895E0910B388E2F90E08B309105E1
S1130CD008F0BDC0FC01E25CFF4F0C9462080E9466
S1130CE0C202B5C080913938811104C084E0809378
S1130CF00B38ADC080913538803121F482E0809387
S1130D000B38A5C080913C38853009F0A0C0109202
S1130D103C380E9463029BC00E94540398C0809197
S1130D203538803159F480913938882319F010927C
S1130D300B388DC084E080930B3889C080913C3897
S1130D40893109F084C010923C380E94E7027FC0C8
S1130D500E94BD037CC080913938882319F0109219
S1130D600B3875C080913538803121F482E080934E
S1130D700B386DC0809135388F7021F086E08093F8
S1130D800B3865C080913C38823309F060C0109202
S1130D903C380E9478035BC080913938882319F06D
S1130DA010920B3854C080912E38811102C00E94D9
S1130DB0040447E062E181EF94E90E943A0447C0E9
S1130DC080913938882319F010920B3840C08091F3
S1130DD03538803121F482E080930B3838C080911B
S1130DE03C388332A1F510923C380E94D8042FC0BD
S1130DF080913938882319F010920B3828C08091DB
S1130E003538803121F482E080930B3820C00E9471
S1130E101E051DC044E06AE087EE94E90E943A048E
S1130E2080913C388F3099F410923C380E94980598
S1130E300EC044E065E082EE94E90E943A04809199
S1130E403C388F3021F410923C380E94E6058091A2
S1130E503938811104C080910B38833011F4109219
S1130E602E38109235380895F8940E943F010E945C
S1130E704C010E94670184E08093010478940E94ED
S1130E80870109C08091280484FF05C010922C3882
S1130E9010922D3807C080912C3890912D388C32C7
S1130EA0914080F380912C3890912D388C32914070
S1130EB028F084E080930A380E94970180912804E6
S1130EC085FD06C081E0809339380E94C20204C0C7
S1130ED0109239380E94BD030E943A060E946206AD
S1130EE0FBCF1F920F920FB60F9211242F933F93B3
S1130EF04F935F936F937F938F939F93AF93BF931E
S1130F00EF93FF93809140388823F1F18091010A97
S1130F1084FD1EC080913F388823D1F0A0E0BAE060
S1130F2090961D921C929197E0913F38F0E0319792
S1130F30EE0FFF1FED5FFA468081918198968D93A5
S1130F409C93999711968C911197806111968C932B
S1130F50809140388150809340388091403881118D
S1130F6018C0E0E0FAE081818F7E81838FE493EC06
S1130F700197F1F700C0000080910B38833049F4E9
S1130F8080E00E94CB0105C0E0E0FAE081818F7E21
S1130F90818380913E38882309F447C08091800A78
S1130FA080FD27C080913D38882319F1E0913D38B8
S1130FB0F0E03197EE0FFF1FED5FFA4680819181DB
S1130FC0A0E8BAE09E968D939C939F97E0913D385C
S1130FD0F0E03197EE0FFF1FED5FFA4680819181BB
S1130FE0969587959C968D939C939D978C91816003
S1130FF08C9380913E38815080933E3880913E3866
S1131000811118C0E0E8FAE080818E7F80838FE44C
S113101093EC0197F1F700C0000080910B38833006
S113102049F481E00E94CB0105C0E0E8FAE0808148
S11310308E7F808381E08093460AFF91EF91BF9178
S1131040AF919F918F917F916F915F914F913F915C
S11310502F910F900FBE0F901F9018951F920F9213
S11310600FB60F9211248F939F9380913C388F5F1A
S113107080933C3880912C3890912D380196809340
S11310802C3890932D3880913838882331F0809112
S113109037388F5F8093373802C010923738809189
S11310A0280482958695877091E0892781708093C2
S11310B039389093560A9F918F910F900FBE0F90DD
S11310C01F901895EE0FFF1F0590F491E02D0994E1
S11310D00F931F93CF93DF938230910510F482E036
S11310E090E0E0917C38F0917D3820E030E0A0E0A1
S11310F0B0E0309719F14081518102811381481782
S11311005907C8F08417950769F4109731F01296BF
S11311100C93129713961C9327C000937C3810935A
S11311207D3822C02115310519F04217530718F4F0
S11311309A01BD01EF01DF01F801DBCF2115310573
S1131140F9F0281B390B2430310580F48A819B8106
S11311506115710521F0FB018283938304C08093A0
S11311607C3890937D38FE01329644C0FE01E20F34
S1131170F31F8193919322503109288339833AC014
S113118020917A3830917B38232B41F42091023816
S11311903091033820937A3830937B38209100388B
S11311A0309101382115310541F42DB73EB74091F6
S11311B0043850910538241B350BE0917A38F091AE
S11311C07B38E217F307A0F42E1B3F0B28173907CF
S11311D078F0AC014E5F5F4F2417350748F04E0F8F
S11311E05F1F40937A3850937B388193919302C068
S11311F0E0E0F0E0CF01DF91CF911F910F910895CE
S1131200CF93DF93009709F481C0FC0132971282D7
S11312101382A0917C38B0917D38109781F420819D
S11312203181820F931F20917A3830917B382817AF
S1131230390751F5E0937A38F0937B3867C0ED01B4
S113124020E030E0CE17DF0740F44A815B819E0145
S113125041155105F1F0EA01F5CFC283D3834081F2
S11312605181840F951FC817D90759F48881998132
S1131270840F951F0296808391838A819B81828348
S113128093832115310529F4E0937C38F0937D385C
S11312903DC0E901EA83FB8349915991C40FD51FED
S11312A0EC17FD0761F480819181840F951F0296EC
S11312B0E90188839983828193818A839B83E0E017
S11312C0F0E012968D919C911397009719F0FD010F
S11312D0DC01F7CF8D919C9111979D012E5F3F4FBB
S11312E0820F931F20917A3830917B382817390761
S11312F069F4309729F410927C3810927D3802C03A
S113130012821382A0937A38B0937B38DF91CF9105
S113131008958F929F92AF92BF92CF92DF92EF92F5
S1131320FF92CF93DF93EC01688179818A819B815D
S1131330611571058105910521F464E279ED8BE570
S113134097E02DE133EF41E050E00E94010A4901AA
S11313505A019B01AC01A7EAB1E40E94200A6B0187
S11313607C01ACEEB4EFA50194010E942E0ADC01CD
S1131370CB018C0D9D1DAE1DBF1DB7FF03C0019792
S1131380A109B04888839983AA83BB839F77DF919F
S1131390CF91FF90EF90DF90CF90BF90AF909F9050
S11313A08F9008950E948909089586E098E30E9429
S11313B089090895A0E0B0E0809306389093073837
S11313C0A0930838B0930938089503D080819927F1
S11313D00895FC01E050FC4E0895262FAF93BF936F
S11313E0E0E0F0E1328131FDFDCFDC01A050BC4EE4
S11313F02C932DE924BF23E020830196BF91AF9164
S11314000895052E97FB1EF400940E94180A57FDB8
S113141007D00E94330A07FC03D04EF40C94180A38
S113142050954095309521953F4F4F4F5F4F08950C
S113143090958095709561957F4F8F4F9F4F08953C
S11314400E94550AA59F900DB49F900DA49F800DF6
S1131450911D11240895B7FF0C94200A0E94200ABC
S1131460821B930B0895A1E21A2EAA1BBB1BFD013C
S11314700DC0AA1FBB1FEE1FFF1FA217B307E4076F
S1131480F50720F0A21BB30BE40BF50B661F771FC7
S1131490881F991F1A9469F76095709580959095A7
S11314A09B01AC01BD01CF010895A29FB001B39F80
S11314B0C001A39F700D811D1124911DB29F700D59
S10F14C0811D1124911D0895F894FFCFA4
S11314CC1FF3000000C800A90002130000009600DE
S11314DC920023201C17A1A5A9ED001515159599AB
S11314EC979516D50060202020A0005E1E1E1E9E1F
S11314FC005C1C1C1C9C005E0064006A007000777D
S113150C007E0085008D0095009E00A800B200BCF2
S113151C00C700D300E000ED00FB000A011A012B08
S113152C013C014F01630178018F01A601BF01DA6F
S113153C01F60114023402550279029E02C602F02D
S113154C021D034D037F03B403EC0328046704AAB0
S113155C04F1043D058C05E1053A069906FE06687E
S113156C07D9075008CF085509E309790A190BC2A2
S108157C0B750C320D9B
S113158100007E382000010000000501050200036F
S113159120202000500020180030180050000020A6
S10F15A10020000050002020004030001A
S9030000FC
